:020000042001D9
:100000009711FF5F93810143970200009382820161
:100010007390523093021000638402007350107C7E
:10002000970200009382C211739052301701FFDFD4
:10003000130141FD63140100138101D1732540F1C7
:10004000814213030040137101FF6385A2001A91DE
:100050008502D5BF970000009380200863830000CD
:100060008290732540F181450146FD209700FFDF16
:10007000938040F96383000082909702000093828E
:10008000C2007390523003230000F5BF000000004F
:100090008280A14673B306309302400063C55500C9
:1000A0001376350011CA230005000505FD15E34749
:1000B000B0FE731003308280232005001105F11576
:1000C000E34EB0FC73100330828023200300110341
:1000D000E34D73FE828006849702FFDF938282F2F3
:1000E000638C02049702FFDF9382C2F1F32740F191
:1000F000A14673B006300A839703FFDF93838330F2
:100100008A9363037300D137639857021703FF5F25
:10011000130343EF9713FF5F938343B763037300A6
:100120006D371703FFE71303E3ED9703FFE79383AF
:1001300063ED63037300513FA2808280F322203479
:1001400073231034F3233034D5BF411122C6000885
:10015000010032444101828006849711FF5F938140
:10016000612D930200006311550E97D20000938217
:1001700062CB1703FF5F1303E3E89713FF5F9383DB
:10018000E3B0638C6200635A730003A5020091021E
:100190002320A3001103E34A73FE97120000938209
:1001A000624E1703FFE71303E3E59703FFE793832B
:1001B00063E5638C6200635A730003A50200910239
:1001C0002320A3001103E34A73FE0F1000009712CF
:1001D00000009382224B1703FF5F1303A3E29703F0
:1001E000FF5F938323E2638C6200635A730003A56D
:1001F000020091022320A3001103E34A73FE0F10B3
:1002000000001713FF5F130363A8938301916357E3
:100210007300232003001103E34D73FE1712FF5FE9
:100220001302C2A611C2029617C500001305855518
:10023000EFC08051EFC0405817D50000130525B915
:10024000EFC08050EFC010370937FD5673B046300D
:1002500073B04634F3271030372704007D8F09C769
:1002600073B0363073B02630370704007D8F19C362
:1002700073B006183707010013078702F98F89CB7F
:10028000F32700300967D98F73900730735030001F
:10029000F327103037072000F98F99C7F327003074
:1002A00093E7072073900730054597150000938565
:1002B000E53B171600001306A63B3120EFC0E049CE
:1002C000A28082808280411106C2F32240F1130392
:1002D00000006385620073005010F5BFEF100054FA
:0602E00092404101828002
:0C02E800F4020120200301204A03012041
:1002F400011106CE22CC0010EF90701A2326A4FE22
:100304008327C4FE99C7B7170080138547C2EF90AF
:1003140090210100F240624405618280011106CE01
:1003240022CC0010EF90B0172326A4FE8325C4FE30
:10033400B7170080138547C2EFB0B0440100F24004
:10034400624405618280411106C622C40008F16737
:1003540093850720B71700801385C7BCEFC08008BA
:0A0364000100B240224441018280F2
:10037000493243206E6F7420617661696C61626CF2
:100380006520000042483137353020416476616E87
:1003900063656420626567696E0D00004572726F67
:1003A0007220696E697469616C697A696E6720424E
:1003B00048313735300D00004C696768743A2025A4
:1003C00066206C780D0A00005B4248313735305D9D
:1003D000204552524F523A20496E76616C69642032
:1003E0006D6F64650D0000005B4248313735305D4C
:1003F000204552524F523A20746F6F206C6F6E67D7
:1004000020666F72207472616E736D6974206275FC
:10041000666665720D0000005B4248313735305D1D
:10042000204552524F523A20726563656976656481
:10043000204E41434B206F6E207472616E736D6964
:1004400074206F6620616464726573730D00000030
:100450005B4248313735305D204552524F523A2089
:100460007265636569766564204E41434B206F6E0B
:10047000207472616E736D6974206F66206461749C
:10048000610D00005B4248313735305D20455252E6
:100490004F523A206F74686572206572726F720DE8
:1004A000000000005B4248313735305D2045525234
:1004B0004F523A20756E646566696E656420657298
:1004C000726F720D000000005B4248313735305DBD
:1004D000204552524F523A204D54726567206F7535
:1004E00074206F662072616E67650D005B42483153
:1004F0003735305D20446576696365206973206E09
:100500006F7420636F6E66696775726564210D0094
:10051000000000C0000080BF00008A4200000040D0
:100520009A99993F521901205219012074190120FA
:100530005219012074190120741901207419012025
:1005400074190120741901207419012074190120F3
:1005500074190120741901207419012074190120E3
:100560007419012052190120521901207419012017
:10057000521901209E190120BE190120CC19012019
:10058000DA190120E8190120021B01200E1B0120AD
:100590001C1B01202A1B0120381B0120961B012057
:1005A000961B0120081C0120D21B0120081C0120E1
:1005B000081C0120081C0120081C0120081C012027
:1005C000081C0120081C0120081C0120081C012017
:1005D000081C0120081C0120081C0120961B01207A
:1005E000961B0120081C0120D21B012000000000E6
:1005F000FFFFFFFFFFFFEF7F494E4600696E660079
:100600004E414E006E616E003000000030313233DA
:1006100034353637383941424344454600000000FE
:100620003031323334353637383961626364656668
:100630000000000000000000000000000000F83F83
:1006400061436F63A787D23FB3C8608B288AC63FD8
:10065000FB799F501344D33F000000000000F03F9F
:1006600000000000000024400000000000001C40CA
:100670000000000000001440000000000000E03F07
:10068000496E66696E697479000000004E614E0023
:10069000000000000000000000000000000000005A
:1006A000000000000000000000000000000000004A
:1006B000000000000000000000000000000000003A
:1006C000000000000000000000000000000000002A
:1006D000000000000000000000000000000000001A
:1006E000000000000000000000000000000000000A
:1006F00043000000504F5349580000002E000000F6
:100700000080E03779C34143176E05B5B5B893460D
:10071000F5F93FE9034F384D321D30F94877825AD9
:100720003CBF737FDD4F1575000000000000F03FF7
:1007300000000000000024400000000000005940BC
:100740000000000000408F40000000000088C3400F
:1007500000000000006AF8400000000080842E4184
:1007600000000000D01263410000000084D79741D0
:100770000000000065CDCD41000000205FA00242D6
:10078000000000E876483742000000A2941A6D424B
:10079000000040E59C30A2420000901EC4BCD6423E
:1007A00000003426F56B0C430080E03779C34143E9
:1007B00000A0D8855734764300C84E676DC1AB435F
:1007C000003D9160E458E143408CB5781DAF15447D
:1007D00050EFE2D6E41A4B4492D54D06CFF0804458
:1007E000F64AE1C7022DB544B49DD9794378EA446D
:1007F00005000000190000007D000000232D302BB3
:1008000020000000686C4C006566674546470000A4
:1008100000202020202020202020282828282820D0
:1008200020202020202020202020202020202020C8
:100830002088101010101010101010101010101030
:100840001004040404040404040404101010101020
:1008500010104141414141410101010101010101EA
:10086000010101010101010101010101101010103C
:1008700010104242424242420202020202020202BC
:100880000202020202020202020202021010101010
:100890002000000000000000000000000000000038
:1008A0000000000000000000000000000000000048
:1008B0000000000000000000000000000000000038
:1008C0000000000000000000000000000000000028
:1008D0000000000000000000000000000000000018
:1008E0000000000000000000000000000000000008
:1008F00000000000000000000000000000000000F8
:1009000000000000000000000000000000000000E7
:10091000000000005A500000AA4F0000B04F000035
:10092000AA4F00004C500000AA4F0000B04F00003A
:100930005A5000005A5000004C500000B04F0000C8
:10094000904F0000904F0000904F0000B44F000007
:100950005E5500005E5500007655000058550000B9
:100960005855000004560000765500005855000008
:1009700004560000585500007655000056550000FA
:10098000565500005655000004560000E05E000079
:100990000A5F0000325F00000A5F00007E5F000017
:1009A0000A5F0000325F0000E05E0000E05E0000D1
:1009B0007E5F0000325F0000F25E0000F25E000029
:1009C000F25E0000365F0000346100003461000018
:1009D0004C61000030610000306100009261000055
:1009E0004C61000030610000926100003061000045
:1009F0004C6100002E6100002E6100002E6100009D
:100A000092610000000102020303030304040404D2
:100A1000040404040505050505050505050505058A
:100A2000050505050606060606060606060606066A
:100A30000606060606060606060606060606060656
:100A4000060606060707070707070707070707073A
:100A50000707070707070707070707070707070726
:100A60000707070707070707070707070707070716
:100A70000707070707070707070707070707070706
:100A800007070707080808080808080808080808EA
:100A900008080808080808080808080808080808D6
:100AA00008080808080808080808080808080808C6
:100AB00008080808080808080808080808080808B6
:100AC00008080808080808080808080808080808A6
:100AD0000808080808080808080808080808080896
:100AE0000808080808080808080808080808080886
:100AF0000808080808080808080808080808080876
:100B000008080808FE710120A87301208C730120D9
:100B10000000000000000000A8760120DC76012023
:100B2000867201206473012000740120B8740120D2
:100B300000000000000000000000000000000000B5
:100B400000000000000000000000000000000000A5
:100B500072750120327101200000000000000000C9
:100B600000000000000000002E88012020880120E5
:100B7000F4870120F48701200A880120E8880120F9
:100B80004E8901204E890120FA8801204E890120DA
:100B90004E8901204E8901200C8901204E890120B7
:100BA0004E8901204E8901201E8901204E89012095
:100BB0004E8901204E8901204E8901203089012073
:100BC00030890120308901203089012030890120BD
:100BD00030890120308901203089012030890120AD
:100BE000308901203089012030890120308901209D
:100BF000308901203089012030890120B08901200D
:100C0000E28C0120C68C01200000000000000000E2
:100C10000000000000000000948A01200000000095
:100C20006E8C01209A8C0120000000000000000062
:100C300000000000000000000000000000000000B4
:100C40000000000000000000368D012000000000C0
:100C50000000000000000000000000000000000094
:100C6000528D0120C48D01200A8E0120708E01203A
:100C7000E68E0120FC8E0120108F0120268F01209E
:100C80003A8F01209C8F0120FE8F01205E90012071
:100C90007E900120C4900120F2900120109101204B
:100CA000309101204095012000000000000000006C
:100CB0000000000000000000000000000000000034
:100CC0009C960120000000005E970120AE97012055
:100CD00000000000000000002E980120FE97012077
:100CE000A29301203C9301200000000000000000BE
:100CF000000000000000000056980120F29801203A
:100D00008E990120029A01200100000020000000BD
:100D1000001BB70000366E01010000001F0000003C
:100D2000030000003F000000010000002000000060
:100D300000366E01006CDC02030000001F000000A2
:100D4000020000003F000000010000001000000051
:100D5000808D5B00001BB700000000001F0000003A
:100D6000030000003F000000010000001000000030
:100D7000001BB70000366E01010000001F000000DC
:100D8000020000003F000000010000001000000011
:100D900000366E01006CDC02030000001F00000042
:100DA000020000001F000000010000000800000019
:100DB000808D5B00001BB700000000001F000000DA
:100DC000030000001F0000000100000008000000F8
:100DD000001BB70000366E01010000001F0000007C
:100DE000020000001F0000000100000008000000D9
:100DF00000366E01006CDC02030000001F000000E2
:100E0000020000000F0000000100000004000000CC
:100E1000808D5B00001BB700000000001F00000079
:100E2000030000000F0000000100000004000000AB
:100E3000001BB70000366E01010000001F0000001B
:100E4000020000000F00000001000000040000008C
:100E500000366E01006CDC02030000001F00000081
:100E60000200000007000000010000000200000076
:100E7000808D5B00001BB700000000001F00000019
:100E8000020000000F00000001000000020000004E
:100E9000001BB70000366E01010000001F000000BB
:100EA000010000000F00000001000000020000002F
:100EB00000366E01006CDC02030000001F00000021
:100EC0000100000007000000020000000100000017
:100ED000808D5B00001BB700000000001F000000B9
:100EE00001000000070000000200000001000000F7
:100EF000001BB70000366E01010000001F0000005B
:100F000001000000030000000200000001000000DA
:100F100000366E01006CDC02030000001F000000C0
:100F200003000000FFFFFFFF0400000001000000BD
:100F3000808D5B00001BB700000000001F00000058
:100F40000300000000000000040000000100000099
:100F5000001BB70000366E01010000001F000000FA
:100F600003000000FFFFFFFF04000000010000007D
:100F700000366E01006CDC02030000001F00000060
:100F800002000000FFFFFFFF06000000010000005C
:100F9000808D5B00AAC2A2000000000023000000B8
:100FA0000100000002000000060000000100000037
:100FB000AAC2A200001BB70000000000170000003A
:100FC00003000000FFFFFFFF06000000010000001B
:100FD000001BB7000024F400010000002F000000F7
:100FE00003000000FFFFFFFF0600000001000000FB
:100FF0000024F40080A81201010000001700000086
:1010000002000000FFFFFFFF0600000001000000DB
:1010100080A8120155854501020000002300000050
:1010200002000000FFFFFFFF0800000001000000B9
:10103000808D5B00001BB700000000001F00000057
:1010400003000000FFFFFFFF080000000100000098
:10105000001BB70000366E01010000001F000000F9
:1010600002000000FFFFFFFF080000000100000079
:1010700000366E01006CDC02030000001F0000005F
:1010800001000000FFFFFFFF0A0000000100000058
:10109000808D5B00007C92000000000027000000B3
:1010A00003000000FFFFFFFF0A0000000100000036
:1010B000007C9200001BB70000000000130000003D
:1010C00002000000FFFFFFFF0A0000000100000017
:1010D000001BB70000F824010100000027000000F9
:1010E00002000000FFFFFFFF0A00000001000000F7
:1010F00000F8240100366E0101000000130000001A
:1011000001000000FFFFFFFF0A00000001000000D7
:1011100000366E0100F049020300000027000000C5
:1011200001000000FFFFFFFF0C00000001000000B5
:10113000808D5B0000127A00000000002F0000008C
:1011400003000000FFFFFFFF0C0000000100000093
:1011500000127A00001BB70000000000170000001A
:1011600002000000FFFFFFFF0C0000000100000074
:10117000001BB7000024F400010000002F00000055
:1011800002000000FFFFFFFF0C0000000100000054
:101190000024F40000366E0101000000170000007A
:1011A00001000000FFFFFFFF0C0000000100000035
:1011B00000366E0180C3C901030000002F0000004B
:1011C00001000000FFFFFFFF0C0000000100000015
:1011D00080C3C9010048E801030000002F0000009F
:1011E00001000000FFFFFFFF0E00000001000000F3
:1011F000808D5B00B6A16800000000003700000091
:1012000003000000FFFFFFFF0E00000001000000D0
:10121000B7A16800001BB700000000001B00000021
:1012200002000000FFFFFFFF0E00000001000000B1
:10123000001BB7006D43D100010000003700000023
:1012400002000000FFFFFFFF0E0000000100000091
:101250006E43D10000366E01010000001B0000004B
:1012600001000000FFFFFFFF0E0000000100000072
:1012700000366E01DB86A20103000000370000008B
:1012800001000000FFFFFFFF100000000100000050
:10129000808D5B00001BB700000000001F000000F5
:1012A00002000000FFFFFFFF10000000010000002F
:1012B000001BB70000366E01010000001F00000097
:1012C00001000000FFFFFFFF12000000010000000E
:1012D000808D5B00AAC2A200000000002300000075
:1012E00002000000FFFFFFFF1200000001000000ED
:1012F000ABC2A200001BB7000000000011000000FC
:1013000001000000FFFFFFFF1200000001000000CD
:10131000001BB700558545010100000023000000B7
:1013200001000000FFFFFFFF1400000001000000AB
:10133000808D5B00007C9200000000002700000010
:1013400002000000FFFFFFFF14000000010000008A
:10135000007C9200001BB70000000000130000009A
:1013600001000000FFFFFFFF14000000010000006B
:10137000001BB70000F82401010000002700000056
:1013800001000000FFFFFFFF160000000100000049
:10139000808D5B00E82A8500000000002B00000023
:1013A00002000000FFFFFFFF160000000100000028
:1013B000E92A8500001BB7000000000015000000AE
:1013C00001000000FFFFFFFF160000000100000009
:1013D000001BB700D1550A01010000002B000000DE
:1013E00001000000FFFFFFFF1800000001000000E7
:1013F000808D5B0000127A00000000002F000000CA
:1014000002000000FFFFFFFF1800000001000000C5
:1014100000127A00001BB700000000001700000057
:1014200001000000FFFFFFFF1800000001000000A6
:10143000001BB7000024F400010000002F00000092
:1014400001000000FFFFFFFF1A0000000100000084
:10145000808D5B0027AE70000000000033000000AC
:1014600002000000FFFFFFFF1A0000000100000063
:1014700028AE7000001BB70000000000190000003B
:1014800001000000FFFFFFFF1A0000000100000044
:10149000001BB7006658E1000100000033000000A7
:1014A00001000000FFFFFFFF1C0000000100000022
:1014B000808D5B00B6A168000000000037000000CE
:1014C00002000000FFFFFFFF1C0000000100000001
:1014D000B7A16800001BB700000000001B0000005F
:1014E00001000000FFFFFFFF1C00000001000000E2
:1014F000001BB7006D43D100010000003700000061
:1015000001000000FFFFFFFF1E00000001000000BF
:10151000808D5B0000A86100000000003B0000001F
:1015200002000000FFFFFFFF1E000000010000009E
:1015300000A86100001BB700000000001D000000B3
:1015400001000000FFFFFFFF1E000000010000007F
:10155000001BB7000050C300010000003B0000006A
:1015600001000000FFFFFFFF20000000010000005D
:10157000808D5B00001BB700000000001F00000012
:1015800001000000FFFFFFFF2A9D0120D69D0120E2
:10159000A4A101204AAA0120C8AA0120E0AA012092
:1015A000FCAA01204AAB01202EAB012066AB012032
:1015B0009CAB01208AAD012050AC012068AC012019
:1015C00084AC0120D2AC0120B6AC0120EEAC0120ED
:1015D00024AD012074A7012034A70120BAA701205F
:1015E000E4A7012010A8012056A8012096A80120F8
:1015F000D6A801201CA901205CA90120BEA90120B8
:1016000008AA01200EAC012096AD0120B6AD012044
:101610001CAF01206EB20120D6B301202EB50120EF
:10162000B0AF0120D0AF0120FCBD01209EBB012046
:101630007ABA0120E0BB012036BC012056BC012053
:1016400056B9012076B9012096B90120D0B9012000
:1016500008BA012042BA0120AABA0120F4BA012036
:1016600024BB01206EBB0120701601200000000089
:101670006C6962676C6F737300000000000000000B
:10168000797106D622D44AD24ED00018930704FEB0
:10169000BE850145EFA0B0392326A4FE8327C4FEF2
:1016A00081C7FD577D588DA0930784FDBE850145F8
:1016B000EFA0903C2326A4FE8327C4FE81C7FD57DC
:1016C0007D5899A0832704FE032844FE1307803E1B
:1016D000B306E80201473387E702BA961307803E54
:1016E0003386E702B3B9E7023289B3873601BE8990
:1016F000832784FD0328C4FD3E86C2864A85CE85A5
:10170000EF300040AA872E883E85C285B250225411
:1017100012598259456182801D7186CEA2CCCACAF7
:10172000CEC8D2C6D6C480102326A4FA8147014869
:101730002320F4FC232204FD232CF4FA232E04FBA3
:10174000930784FBBE850145EFA010338327C4FABD
:101750003E898149832784FB0328C4FBB386F902B1
:10176000330728033697B306F902B33AF902368AEB
:10177000B3075701BE8A1306803E81465285D6853F
:10178000EF300038AA872E88232CF4FC232E04FD8A
:10179000930704FCBE850145EFA07029832704FC54
:1017A000032844FC2328F4FC232A04FD832604FD9B
:1017B000032744FD832584FD0326C4FDB387B600BB
:1017C0003E853335D5003308C700330705013A8815
:1017D0002324F4FC232604FD39A0930704FCBE85D2
:1017E0000145EFA0D024832704FC032844FC0327F1
:1017F000C4FCC286E3E3E6FE0327C4FCC28663168C
:10180000D700032784FCE3EAE7FC0100F6406644C6
:101810005649C649364AA64A25618280011106CE3C
:1018200022CC00100145EFA0D01C2A8723AEE18E08
:1018300083A7C18F89EBB707012013850737EF1006
:101840004007FD579DA803A7C18F0546E167938513
:10185000076A3A85EFA0500A83A7C18F3E86930599
:101860003002414585202A8785476319F700B7076D
:10187000012013854738EF10C00339A0B7070120B6
:101880001385C739EF10E0020145D92CAA8795C30B
:10189000C5262326A4FE0325C4FEEF504044AA8794
:1018A0002E883E86C286B70701201385873BEF004E
:1018B000506E1305803E8D35C1BF3E85F2406244B7
:1018C00005618280011106CE22CC00102326A4FEE1
:1018D000AE872322C4FEA305F4FE832744FE89C7F6
:1018E000032744FE23A4E1908347B4FE99C703472E
:1018F000B4FEB717008023ACE7C20325C4FE052061
:10190000AA8781CB130550043122AA8799C3854742
:1019100011A081473E85F240624405618280797161
:1019200006D622D44AD24ED00018232EA4FC9547C6
:10193000A305F4FE8327C4FDC1174D47636CF7026E
:1019400013972700B707012093874752BA979C4304
:10195000828703A58190B717008083A587C31307EB
:10196000B4FE1306C4FD85478546EFA090002945C7
:10197000653301A8B70701201385873CEF0070731A
:1019800001008347B4FE11476367F70613972700EA
:10199000B707012093874757BA979C43828703274D
:1019A000C4FDB717008023A4E7C8D939AA873E89A8
:1019B000814923A0219123A231918547A9A0B7078E
:1019C00001201385873EEF00D06E2DA8B7070120B8
:1019D00013858741EF00F06D35A0B707012013850F
:1019E0000745EF00106D39A8B70701201385474858
:1019F000EF00306C01A8B70701201385474AEF00BC
:101A0000506B010081473E85B250225412598259D1
:101A100045618280797106D622D40018AA87A30F67
:101A2000F4FC0347F4FDFD4763F8E7000347F4FDCA
:101A30009307F00F631AF700B70701201385874C4F
:101A4000EF003067814701AA95472307F4FE8347DB
:101A5000F4FD958393F7F70F93E7070493F7F70FD8
:101A6000A307F4FE03A58190B717008083A587C361
:101A70001307E4FE1306F4FE85478546EFA0606F6A
:101A80008307F4FDFD8BE207E18793E70706E20792
:101A9000E18793F7F70FA307F4FE03A58190B7172B
:101AA000008083A587C31307E4FE1306F4FE854771
:101AB0008546EFA0006CB717008083A787C893F70F
:101AC000F70FA307F4FE03A58190B717008083A545
:101AD00087C31307E4FE1306F4FE85478546EFA08F
:101AE0004069294515398347E4FE1147636DF704C2
:101AF00013972700B707012093878758BA979C430D
:101B000082870347F4FD2386E1808547A9A0B707B4
:101B100001201385873EEF00D0592DA8B70701207B
:101B200013858741EF00F05835A0B70701201385D2
:101B30000745EF00105839A8B7070120138547481B
:101B4000EF00305701A8B70701201385474AEF007F
:101B50005056010081473E85B25022544561828033
:101B6000797106D622D44AD24ED00018232EA4FC76
:101B7000232604FEB717008083A787C8C1174D47E7
:101B80006364F70813972700B70701209387C759A5
:101B9000BA979C4382878327C4FD89CF83C7C180BE
:101BA0003E879307400B3307F70293075004B34770
:101BB000F70229A883C7C1803E87BA879207998F09
:101BC0008E073E8793075004B347F7022326F4FE9F
:101BD0002DA88327C4FD91CF83C7C1803E87BA87D4
:101BE0008607BA978E073E8793075004B347F702DC
:101BF00009A883C7C1801397470093075004B347D0
:101C0000F7022326F4FE11A001009D3CAA872320A1
:101C1000F4FE232204FE83A5019003A641908327AE
:101C200004FE032844FEB386B740368533B5A700CB
:101C30003307C840B307A7403E87B6873A880327D3
:101C4000C4FE3A898149CE864287636BD700CE862F
:101C500042876395E6004A8763E4E700854711A061
:101C600081473E85B2502254125982594561828083
:101C7000011106CE22CC4ACA4EC80010B717008008
:101C800083A787C881EFB70701201385C74EEF00F0
:101C90005042B707012083A70751D5A8B7070120F5
:101CA00083A747512326F4FE230404FEA30404FE65
:101CB00003A58190B717008083A787C3930684FE8E
:101CC00005470946BE85EFA06046834784FEA2070C
:101CD000034794FED98F3E85EF40106BAA872326D9
:101CE000F4FE793AAA873E89814923A0219123A253
:101CF0003191B707012083A547510325C4FEEF406A
:101D00009041AA87D9C303C7C180930750046308D1
:101D1000F70283C7C1803E85EF40B0722A87B707BC
:101D20000120BA8503A58751EF40101AAA87BE8506
:101D30000325C4FEEF409043AA872326F4FEB7177D
:101D4000008003A787C8930710026309F700B7173D
:101D5000008003A787C8C547631DF700B7070120A8
:101D600083A5C7510325C4FEEF401016AA8723267A
:101D7000F4FEB707012083A70752BE850325C4FEE2
:101D8000EF409014AA872326F4FE8327C4FE3E85E5
:101D9000F24062445249C24905618280797122D47D
:101DA0004AD052CC56CA5AC806D626D24ECE3A8A05
:101DB000AE8A32843689428B014763580600370762
:101DC00000803344C7001307D0022380E70093F458
:101DD000F8FD930760048D466388F4009307500470
:101DE00089466393F4000509DA879308C100130854
:101DF00081004A87D6852286EF00905E93077004A3
:101E0000AA896396F400137A1A00630A0A049307F6
:101E10006004338A29016397F40203C7090093071A
:101E20000003631EF700014681465685A285EF3008
:101E3000903511C585473389274123202B018327FE
:101E40000B003E9A014681465685A285EF30B0339D
:101E500011E152C613070003B24763E24703B247DA
:101E60004257B2502254B38737411CC34E85925417
:101E70000259F249624AD24A424B456182809386B6
:101E8000170036C62380E700C1BF2300C500130733
:101E900025009307B00263D60500B305B040930751
:101EA000D002A300F500A54763DAB70441119307F8
:101EB000F100BE88294813033006B3E605031386F4
:101EC000F7FF93860603A38FD7FEB3C60503634DC2
:101ED000B30093860603F917A30FD6FE63E9170133
:101EE0003305A74041018280B287B685F9B78507DF
:101EF00083C6F7FF0507A30FD7FECDB793070003EF
:101F000013074500938505032301F500A301B500E0
:101F10003305A740828019713ACE86DEA2DCA6DAAC
:101F20002E84CAD8CED6D2D4B689DAD0DECEE2CCD0
:101F30003289D6D2E6CAEAC8EEC6AA84EF101049A2
:101F4000832B05005E85EF007017032B040072479A
:101F500002DC93760B102A8C034A84011C43F1CADD
:101F60009386470014C39C43081098433AD0D84343
:101F70003AD298473AD4DC473ED6EF40D05F28C4E7
:101F80006CC4832AC40417E7FFFF1307A766832CDA
:101F90008404032D0700832D470093971A0085833F
:101FA0006A86EE866685BE853ECEEF40405C41ED9A
:101FB000F2476A86EE866685BE85EF30B02D6354A3
:101FC000A008014681466685D685EF30B02C635661
:101FD00005009307D002A301F4049307700497EA65
:101FE000FFFF938AAA6163F6470197EAFFFF938A8E
:101FF0002A61137BBBFF8D47232064011CC8014B62
:102000004E87CA867018A2852685E12EFD5C631274
:1020100095177D55F6506654D6544659B659265AEA
:10202000965A065BF64B664CD64C464DB64D09614A
:1020300082809D07E19B9386870014C39843DC430D
:1020400038C47CC43DBF6686D6866685D685EF409B
:10205000005205C563D60A009307D002A301F40419
:102060009307700497EAFFFF938ACA59E3F347F98D
:1020700097EAFFFF938A4A59ADBF5C407D57137DB5
:10208000FA0D6393E70899475CC0544013670B400F
:102090003C183EC0568693073103E68518C002C23D
:1020A000D288130841032685D53993077004AA8A7C
:1020B000D255631BFD00F55763C5F5005C4063D73F
:1020C000B708791A137AFA0F9307500663E54705A4
:1020D000FD155286130504052EDA453B62578546E9
:1020E0002A8BB307A7001CC863C5E6001840058B00
:1020F00019C385071CC883473103E38307F093079F
:10210000D002A301F404EDBD13077004E31FEDF644
:10211000ADFF854795BF93076006631BFA025C40DD
:10212000635BB0000CC881E71840058B09CF8507B9
:10213000AE971CC809A889E718408546058B19C3C6
:102140009386270014C82CCC014B75B7130A700670
:10215000E25763C9F5001C400CC8858BEDD7938707
:102160001500C1BF05476344B00009470D8FBA97FA
:10217000C9B71C4013F7074015E314485686CA85B3
:1021800026858299E30795E91C40898B639607248D
:10219000F2574844E350F5E83E85ADBD13075006BD
:1021A000637B471928446C4401468146EF30A07D8B
:1021B00039E9854617E6FFFF13064645CA85268599
:1021C0008299E30895E55257E2576345F7001C40B2
:1021D000858BDDDBE2865E86CA8526858299FD5782
:1021E000E309F5E2014A930AA4017D5BE257FD177A
:1021F000E35CFAF885465686CA8526858299E30A05
:1022000065E1050AE5B7D2576346F006854617E64D
:10221000FFFF1306A63FCA8526858299E30B95DF4B
:10222000D2576257D98F81E71C40858BB1DFE28698
:102230005E86CA8526858299FD57E30CF5DC014A46
:10224000130BA401FD5BD257B307F040634BFA00B8
:10225000E2565686CA8526858299FD57E316F5F221
:102260004DBB85465A86CA8526858299E30375DB70
:10227000050AD1BF3C4C625A63D347013E8A635A78
:102280004001D2865686CA8526858299FD57E3028B
:10229000F5D8814C130DA401FD5D09A885466A8619
:1022A000CA8526858299E306B5D7850C032B84055C
:1022B000D28763530A008147B307FB40E3C0FCFEAB
:1022C0005257E257634DF7021C40858B8DEBE25766
:1022D0005257338AE7406344EB00338A6741635BBC
:1022E0004001D28633866A01CA8526858299FD57C8
:1022F000E301F5D2814A130BA401FD5B15A0E28630
:102300005E86CA8526858299FD57E312F5FC11B3D6
:1023100085465A86CA8526858299E30C75CF850A3B
:102320005257E257998F528763530A000147998F9A
:10233000E3C0FAFE91BDE25605476344D700858BA2
:10234000B5C785465686CA85268582997D5AE30299
:1023500045CDE2865E86CA8526858299E30B45CB0C
:1023600028446C4401468146EF30E0611DC9E256C5
:1023700013861A00CA85FD1626858299E30B45C986
:10238000DA8613060405F9B585465686CA8526857C
:102390008299E30075C9050AE257FD17E346FAFE84
:1023A000C5B7014A930AA401FD5BFDB78546568671
:1023B000CA8526858299E31595FDA1B9854656867D
:1023C000CA8526858299E30665C5050A5C4472576D
:1023D000998FE345FAFE6DBB014A930A94017D5B38
:1023E000F5B7797156CA9C49BA8A984522D426D243
:1023F0004ECE52CC06D64AD05AC85EC6AA892E8482
:10240000B284368A63D3E700BA879CC0034734049A
:1024100019C385079CC01C4093F7070281C79C40E5
:1024200089079CC00329040013796900631A090015
:10243000130B9401FD5B5C449840998F634CF90445
:102440001C408346340493F70702B336D000A5EB53
:1024500013063404D2854E85829AFD576303F50432
:102460001C4011469840998B544481446397C7009F
:10247000B384E64063D3040081441C441848635489
:10248000F700998FBE94014969047D5B6398240528
:10249000014509A885465A86D2854E85829A631ED3
:1024A00075017D55B250225492540259F249624A44
:1024B000D24A424BB24B456182800509ADBF33071A
:1024C000D40013060003A301C704034754049387F1
:1024D0001600A2978906A381E7049DBF8546228640
:1024E000D2854E85829AE30E65FB050945B7797161
:1024F00022D426D24AD04ECE06D652CC56CA5AC87C
:10250000B68983C685019307E0063289AA842E84A2
:10251000138635046380F61E63E2D7069307300600
:102520006382F60A63EDD700638A061E930780056F
:102530006386F616930A24042301D40469A893073A
:1025400040066386F60093079006E395F6FE1C406E
:10255000084393F6070893054500C1C21C410CC30C
:1025600063D807001307D002B307F040A301E404C7
:1025700097E6FFFF9386C609294765A093073007B2
:102580006382F61A63EFD7009307F006638FF604B1
:1025900093070007E390F6FA9C4193E707029CC17A
:1025A00009A8930750076382F60493078007E39313
:1025B000F6F893078007A302F40497E6FFFF9386DB
:1025C0006606DDA01C43938A2504938647009C433E
:1025D00014C32381F5048547B5A293F607041C4173
:1025E0000CC3BDDEC207C187A5BF0C401C4313F856
:1025F0000508138547006305080008C39C4339A0FC
:1026000093F5050408C3FDD983D707001307F00627
:10261000638AE60C97E6FFFF938686FF2947A301AE
:1026200004044C400CC463C5050008406D9908C003
:1026300099E3B28A91CDB28AB3F5E702FD1AB69555
:1026400083C505002380BA00B3D5E70263F2E70A29
:10265000A147631EF7001C40858B91CB58401C4856
:1026600063C7E70093070003A38FFAFEFD1A330642
:10267000564110C84E87CA867000A28526859533BC
:102680007D5A6315450D7D55B2502254925402591E
:10269000F249624AD24A424B45618280A382D50404
:1026A00097E6FFFF9386C6F60C40084313F805082B
:1026B0001C4111056300080208C313F7150001C788
:1026C00093E505020CC04147B9FB0C4093F5F5FDBD
:1026D0000CC0B1B713F8050408C3E30008FEC20735
:1026E000C183E1BF97E6FFFF938686F2214705BFCE
:1026F000AE8799B794411C43CC4913F8060813855B
:1027000047006306080008C39C438CC301A808C3A4
:1027100093F606049C43F5DA2390B70023280400BF
:10272000B28A89BF1C43D04181459386470014C3B8
:1027300083AA07005685EF10005E01C53305554199
:1027400048C05C401CC8A30104042DB71448568639
:10275000CA8526858299E30845F31C40898B8DE75D
:10276000B2474844E352F5F23E8539BF8546568666
:10277000CA8526858299E30865F1050A5C443247DB
:10278000998FE345FAFEE9BF014A930A94017D5B04
:10279000F5B739713EDA2ED232D436D63AD842DC89
:1027A00046DE9387018122CC804326CA06CEAA84C6
:1027B00011C41C4C81E72285EF10802A0C44541070
:1027C0002686228536C6EF10B068F2406244D244B5
:1027D00021618280011126CA4AC806CE22CC4EC68B
:1027E00052C4AA842E8909C51C4D99E3EF104027D5
:1027F0009C4C804481E72685EF10802697E7FFFFF9
:10280000938747EB631CF402C0408357C400A18B3D
:10281000B1C71C48A1C7FD59294A1C44834509007A
:10282000FD17B1E91CC463DE07062286A94526858B
:102830007928FD576308F502294535A097E7FFFF82
:10284000938747E96314F4008044C1B797E7FFFF1B
:10285000938747E4E31BF4FAC04445BFA28526856D
:10286000152A55D97D55F2406244D2444249B249B5
:10287000224A056182801CC4050963D70700184CF1
:1028800063CBE700638945011C401387170018C01C
:102890002380B70059B7228626851528E31F35F710
:1028A000D1B71C401387170018C029472380E700C1
:1028B00061B793870181AA85884329BFAA878507C5
:1028C00003C7F7FF6DFF3385A7407D158280011197
:1028D00022CC26CA4AC806CE4EC6AA842E89328485
:1028E00009C51C4D99E3EF10A01797E7FFFF9387E9
:1028F00067DC631BF406C0401C4C1CC48357C40037
:10290000A18BD9C31C48C9C31C4808409379F90F4F
:102910001379F90F1D8D5C486347F500A285268564
:10292000EF10400235E51C440505FD171CC41C4092
:102930001387170018C0238037015C486389A700FC
:102940008357C400858B89CBA9476317F900A285FB
:102950002685EF00307F0DEDF24062444A85D24477
:102960004249B2490561828097E7FFFF938787D686
:102970006314F400804449B797E7FFFF938787D13A
:10298000E31CF4F6C0448DBFA285268521202DDDF1
:102990007D59D9B741119387018126C2844322C44E
:1029A0004AC006C62A892E8491C49C4C81E726859C
:1029B000EF10000B97E7FFFF9387C7CF631CF4026C
:1029C000C0400317C40093170701C18393F6870023
:1029D000BDEE93F607019DEEA5472320F90013678E
:1029E00007042316E4007D55B24022449244024974
:1029F0004101828097E7FFFF9387C7CD6314F400FE
:102A00008044C1B797E7FFFF9387C7C8E31BF4FA79
:102A1000C04445BF918B95C74C5891C99307440456
:102A20006385F5004A85EF105023232A040283575B
:102A3000C4002322040093F7B7FD2316F4001C48BA
:102A40001CC08357C40093E787002316F4001C487A
:102A500089EF8357C4001307002093F70728638684
:102A6000E700A2854A85EF10A01C8357C40013F726
:102A7000170005C75C4823240400B307F0401CCCB2
:102A80001C480145B5F38317C40013F7070829DF75
:102A900093E707042316F400B9B7898B014791E344
:102AA000584818C4F1BF011122CC1C49804906CEF8
:102AB00026CA4AC84EC652C456C263C187127D1484
:102AC0001318240093894501338A0901130945012C
:102AD0004A9883270A00032708008507B354F702A2
:102AE0006366F706C1684E834A8E814E014FFD181A
:102AF00011030326C3FF110E3377160141823307FA
:102B0000970233069602769793560701B37717011B
:102B1000B307FF4036968326CEFF935E06013376D9
:102B2000160133F71601BA97C18213D70741918E68
:102B3000BA9613DF0641B3F71701C206D58F232ECD
:102B4000FEFEE3776AFA83270800BDCBAA8AEF105E
:102B5000006F6349050441668504CA8501457D16F9
:102B6000910903A8C9FF98419105B376C800158D56
:102B7000B376C700AA96935707011358080113D7D5
:102B80000641B3870741BA9713D50741F18EC207B3
:102B9000D58F23AEF5FEE3753AFD93172400CA974F
:102BA00098431DC72685F2406244D2444249B24947
:102BB000224A924A056182808327080089E77D14B2
:102BC0007118E36B09FF00C951B7984309E77D14F9
:102BD000F117E36CF9FE23A88A00E9B70145E1B7D4
:102BE00075713ED85C5122C526C34AC1CEDED2DC07
:102BF000E2D406C7D6DADAD8DED6E6D2EAD0EECE0E
:102C000036C23AC646CAAA842E843289C2892E8A1E
:102C1000328C89EF4145EF10A00BC8D0232205006C
:102C2000232405002320050023260500DC508C43C7
:102C300089CDD84385472685B397E7009CC5D8C181
:102C4000EF10C019DC5023A0070063530904854727
:102C5000131C190023A0F900135C1C00B707F07FB8
:102C60003377FC006314F70642578967320C938769
:102C7000F770135CCC001CC3336C8C00E3010C3286
:102C8000D24791EB97E7FFFF938787A03EC039A813
:102C900023A00900E1B797E7FFFF9387679F3EC036
:102CA00097E7FFFF9387F79E52471CC3BA402A4419
:102CB00002459A440A49F659665AD65A465BB65BAB
:102CC000265C965C065DF64D496182800146814630
:102CD0002285E28522CE62D4EF20F04A05E14257F8
:102CE00085471CC397E7FFFF938747923EC0D247B3
:102CF000D5DF97E7FFFF938777917DB7B800F400A2
:102D00006286A285268513594C01EF106065137900
:102D1000F97FAA89A64A630D0910A25772451309C3
:102D200019C09395C700B181B707F03FDD8D02DC74
:102D300097E7FFFF938787909043D443EF3080233A
:102D400097E7FFFF938707909043D443EF20D05E2F
:102D500097E7FFFF9387878F9043D443EF2020109E
:102D60002A8B4A85AE8BEF30500A97E7FFFF938797
:102D7000678E9043D443EF20305C2A86AE865A8516
:102D8000DE85EF20C00D2A8BAE8BEF30D0012A8478
:102D9000014681465A85DE85EF20D04F635B0500F2
:102DA0002285EF3090065A86DE86EF20D03D11C195
:102DB0007D140547D9473AD663E3870213173400D9
:102DC00097E7FFFF93878796BA979043D44372455E
:102DD000A255EF20304C635305007D1402D6338991
:102DE0002A41930BF9FF014B63D60B00054B330BC4
:102DF0002B41814B634E0406A29B22CC814A124791
:102E0000A54763E5E7149547854C63D6E70093072C
:102E1000C7FF3EC2814C12478D47630EF71063CF48
:102E2000E704894702C8630DF70685473EC88DA0B1
:102E300036499307000256991307294363D5E702E1
:102E400013050004198D930729413315AC00335441
:102E5000F400418DEF303002B70710FEBE95854774
:102E60007D193EDCF1B53385E7403315A400DDB7AD
:102E7000330B8B40B30A804002CC51B712479147C5
:102E8000630EF70005473AC8124795476306F70AED
:102E9000FD573EC4FD5DC94702C619A885473EC817
:102EA000B2476348F00A854705473EC4854D3AC698
:102EB00003A94402114723220900930647018325F1
:102EC000490063FCD7082685EF00F068DC5023201A
:102ED000A9009C433EC0B94763E6B71D63840C1C40
:102EE000635E800A9377F40013973700935C444045
:102EF00097E7FFFF93878783BA9793F60C01984370
:102F00000949DC4385C697D6FFFF9386A67F90527A
:102F10007245D452A2553AD03ED2EF2060530257A8
:102F2000925793FCFC002A8A2E8C0D4917DDFFFF77
:102F3000130D4D7D89A802C8B247A2973EC4938D58
:102F40001700EE87E346B0F785479DB7854C02C270
:102F5000E9BDB2473EC4BE8DA1BF85052322B9009D
:102F60000607A1BF93F61C0081CE03260D00832621
:102F70004D003A85BE85EF20303C05092A87AE8793
:102F800093DC1C40210DE39F0CFC3A86BE865285E3
:102F9000E285EF20E04B2A8A2E8C81A0094915CCCE
:102FA000B30C804093F7FC001397370097D7FFFFCF
:102FB0009387C777BA979043D4437245A25593DC61
:102FC0004C4017DDFFFF130DED73EF20F0362A8A1A
:102FD0002E8C8147639C0C12DDFFB2576387071468
:102FE00017D7FFFF13078767104354435285E285C5
:102FF00052D0EF20302A635A0512638B0D12A2477C
:103000006350F00A17D7FFFF1307C76582571043B5
:1030100054433E85E285EF203032A247130DF4FF82
:103020002A8A2E8C050962874A853EDE52DABA8CDE
:103030003AD0EF30805D525802573709C0FC4286C3
:10304000BA86EF20702F97D6FFFF938626629042B4
:10305000D442528CEF10B060F2572A8A2E99E1EFD9
:1030600097D7FFFF93870761525802579043D44385
:103070004285BA85EF2010705286CA862A8CAE8CA3
:10308000EF2010176346A054B7070080B3C727018D
:103090005286BE866285E685EF20D01F63470552C3
:1030A000724A225CB64763C30730394763408730B2
:1030B0001317340097D7FFFF93874767BA9703AB7F
:1030C000070083AB4700B24763DE071E634CB01FA7
:1030D000639D0D4E97D7FFFF9387C7599043D44305
:1030E0005A85DE85EF2050255286E286EF2050106B
:1030F000814A01496353054A824702470504138AFE
:103100001700930710032300F70061A913F71C00B1
:1031100009CB03260D0083264D000509EF20D021A1
:10312000854793DC1C40210D75B5228DEE87E5BDEA
:10313000228D8147CDBD9386F7FF1396360097D633
:10314000FFFF9386A65EB2968842CC428246B6972F
:103150003EDAC247CDCF97D7FFFF938727522A8603
:10316000AE868843CC434ADE52D0EF20602E025810
:10317000725717D9FFFF1309E94E4286BA86EF202E
:10318000705F024A2AD02ED2E6856285EF30A041D8
:103190002ADEEF3080472A86AE866285E685EF20FC
:1031A000705DF25702569256050A93870703A30FE4
:1031B000FAFE2A8CAE8CEF20F00D6346050E97D7F1
:1031C000FFFF9387A7498843CC436286E686EF20BA
:1031D000705A02569256EF20F00B63420518D257F0
:1031E000E300FAEC032609008326490002559255B4
:1031F000EF20901403260900832649002AD02ED2FE
:103200006285E685EF2050132A8CAE8CB5BF5286BE
:10321000CA86EF207012525A02492AD02ED2E68571
:103220006285EF3040382ADEEF30203E2A86AE86B7
:103230006285E685EF2010547257D25705091307AF
:103240000703A30FE9FE2A8CAE8C6312F90617D987
:10325000FFFF1309A94203260900832649000255EE
:103260009255EF10D03F2A86AE866285E685EF2024
:1032700020786346A00E0256925603250900832546
:103280004900EF20304F2A86AE866285E685EF2022
:10329000700093070003E35505E00347FAFF930628
:1032A000FAFF6304F7006A8459A8368AFDB797D7F6
:1032B000FFFF9387273B9043D443EF20F0072A8CEE
:1032C000AE8CB1BFE287BE8C8247528C97DAFFFF8B
:1032D000938A4A3913891700BE9D5A86DE86628515
:1032E000E685EF20E016EF30002C2A8DEF30E0313C
:1032F0005A86DE86EF2050042A86AE866285E685F1
:10330000EF20504793070D03A30FF9FE2A86AE86E0
:103310004A8A639E2D07EF1090345A86DE862A8CE7
:10332000AE8CEF20E06C634BA0025A86DE8662858D
:10333000E685EF20406501E593771D0085E3CE85A6
:103340002685EF00B029C25723000A00050480C378
:10335000D247E38D079423A0470189BA228D130732
:1033600090038346FAFF9307FAFF639AE6008246CA
:10337000639DF60013070003050D2380E60003C7D5
:10338000070005072380E70039BF3E8AD9BF03A69F
:103390000A0083A64A000509EF20007A014681460B
:1033A0002A8CAE8CEF20205E0DF951BF424763009E
:1033B0000710924605476345D70C625793873743FA
:1033C00009E7264793076003998F568DDA8C854568
:1033D00026853E9BBE9BEF00B0382A89635E900134
:1033E000635C7001E68763D39B01DE87330BFB4090
:1033F000B38CFC40B38BFB4063800A04C247C5CF4B
:103400006354A003CA856A862685EF00304B4E863A
:10341000AA852A892685EF0050362ACECE852685B4
:10342000EF00D01BF247BE893386AA4111C6CE8574
:103430002685EF00B048AA8985452685EF005032E1
:10344000E247AA8A635BF0063E86AA852685EF00DE
:10345000F04612478547AA8A014D63C8E706014D29
:1034600063120A069317CC00528DA9EFB705F07FBF
:10347000337CBC0063080C04050B850B054D99A03B
:10348000138DFDFF63CAAA01338DAA4163DE0D00CF
:10349000B30CBB41814725BFE247B30A5D41D697D4
:1034A0003ECCEA8A014DDDB7DA8CEE870DB7568D3A
:1034B000DA8C014925B756869DBF12478547014DD5
:1034C000E3DFE7F8E247054589CF83A70A018D07C7
:1034D0008A07D697C843EF00B01D930700023385D3
:1034E000A7405E957D8951C193070002898F1147DE
:1034F000635AF706F1473385A7402A9BAA9CAA9BEB
:1035000063586001CE855A862685EF007046AA89E9
:1035100063587001D6855E862685EF007045AA8ABD
:10352000B257B1C7D6854E85EF007051635105047F
:10353000CE85814629462685EF00700EC2477D1450
:10354000AA89638C0726CA85814629462685EF000D
:10355000100DA2472A896345F0081247894763D1B5
:10356000E70829A8E38EE7F83E85710579B763453A
:10357000B0071247894763D1E7066EC4A24791EFAF
:10358000D685814615462685EF007009AA8AAA8548
:103590004E85EF00D04AE341A0B6B247024A13C4B9
:1035A000F7FF014BD6852685EF005003E30909D8C4
:1035B00063080B0063062B01DA852685EF001002F5
:1035C000CA852685EF0090019DBB814A0149F1B76C
:1035D0006A84814A01490DB6C2476EC46386071EDC
:1035E00063589001CA8566862685EF0070382A895F
:1035F0004A8563060D02832549002685EF00A075E4
:10360000032609012A8B9305C90009060A0631051C
:10361000EF0000720546DA852685EF007035824797
:1036200022474A8B138C1700BA973EC693771A002D
:103630002A893EC4D6854E85EFF0EFC6DA852A8DFD
:10364000930D05034E85EF00903F4A86AA8BD685E1
:103650002685EF00F0415045930CFCFF2A8A054770
:1036600011E6AA854E85EF00903D2A87D2852685F2
:103670003AC8EF00A07692474247628AB3E6E70075
:10368000A247DD8E81EE130790036388ED04635437
:103690007001930D1D032380BC0129B763CA0B0081
:1036A0009247B3EB7701A247B3EBFB0063950B04A2
:1036B000E353E0FECE8505462685EF00702BD685C8
:1036C000AA89EF00D0376346A00071F513F71D00FB
:1036D00079D313079003E39EEDFA930790032380B9
:1036E000FC00930690038347FAFF1307FAFF638CED
:1036F000D708850745A0635BE00013079003E38EBE
:10370000EDFC93871D002380FC0069BDB247A30F29
:10371000BCFF63818705CE85814629462685EF005B
:103720000070AA8981462946DA85268563182B010F
:10373000EF00E06E2A8B2A89050CEDBDEF00206EAC
:10374000CA852A8B814629462685EF00406D2A8945
:10375000E5B7014BCE8505462685EF007021D6855D
:10376000AA89EF00D02DE34EA0F601E593F71D00E6
:10377000ADFB930700030347FAFF9306FAFFE31339
:10378000F7E2368ACDBF82476399E7000247050416
:10379000930710032300F70031B53A8AA9B75247BF
:1037A00097D7FFFF938707EE3EC097D7FFFF93871A
:1037B000E7ED631B07CE6FF06FCFA2476346F000C3
:1037C00012478947E3CCE7DA024AD6854E85EFF007
:1037D0008FAD8247050A930D05033307FA40A247D0
:1037E000A30FBAFFE357F7F6CE8581462946268513
:1037F000EF00E062AA89D1BF83D7C500011122CCB6
:1038000026CA06CE4AC84EC613F78700AA842E845D
:103810006DE7D8416347E000B8416344E0000145EB
:10382000C9A058546DDF03A904009396370123A063
:10383000040063DF060668488357C400918B99C76C
:103840005C401D8D5C5899C33C401D8D5C540C50F0
:103850002A86814626858297FD570357C400631D3B
:10386000F5009440F54763E5D708B7074020850782
:10387000B3D7D700858BADCF1C48232204001CC0D2
:103880009317370163D80700FD576314F5009C4078
:1038900091E368C84C5823A02401D1D19307440474
:1038A0006385F5002685EF00503B232A040285BF7F
:1038B0000C508546014626850297FD57E31EF5F616
:1038C0009C40BDDB75476385E70059476395E7007A
:1038D00023A02401A9B78357C40093E70704231644
:1038E000F400F2406244D2444249B2490561828008
:1038F000136707042316E400EDB783A90501E380ED
:1039000009F203A905008D8B23A035013309394144
:10391000014791E3D84918C4E35320F11C540C50DB
:10392000CA864E8626858297634AA0008357C400C4
:103930007D5593E707042316F40065B7AA99330968
:10394000A940D9BF9C49B9CF011122CC06CE2A8407
:1039500011C51C4D81E72EC62122B24597D7FFFF26
:10396000938747D5639BF5004C408397C50095C767
:1039700022856244F240056141B597D7FFFF9387E6
:1039800067D56394F5000C44CDB797D7FFFF9387B5
:1039900067D0E39CF5FC4C44C9BFF240624401454A
:1039A0000561828001458280411122C406C62A84B5
:1039B0002316B5002317C500232005002322050088
:1039C000232405002322050623280500232A0500B9
:1039D000232C0500214681451305C505AD26971703
:1039E00000009387A7F35CD097170000938707F632
:1039F0001CD497170000938747FA5CD497170000F0
:103A0000938707FD00D01CD8B24022444101828038
:103A100097050000938545F3A1A2411126C2130624
:103A200080069384F5FFB384C4024AC02E8922C461
:103A300006C693854407EF00102D2A8419C9232058
:103A4000050023222501310508C41386840681451B
:103A5000DD2C2285B24022449244024941018280F9
:103A60001C4DADE3411106C622C4970700009387A1
:103A700067FA1CD5938741819C43232405042326A0
:103A80000504232805046314F50085471CCD2A840A
:103A90001D2848C02285052808C422852D2048C439
:103AA000484001469145093708440546A545ED3D86
:103AB00048440946C945CD3D85471CCCB240224407
:103AC00041018280828041119387418126C28443D3
:103AD0004AC006C69C4C22C42A8999E326854937E8
:103AE000938484048044DC40FD1763D607009C4027
:103AF000B1CF8440C5BF0317C40031E7C177850744
:103B0000232204062320040023220400232404008B
:103B10005CC423280400232A0400232C040021462B
:103B200081451305C4050524232A0402232C04021D
:103B300023240404232604042285B2402244924410
:103B40000249410182801304840679BF91454A8568
:103B5000E93588C02A8451FDB1472320F900E9BF27
:103B6000797122D44AD052CC56CA5AC85EC606D6FB
:103B700026D24ECE2A8AAE8A130485040149054B0B
:103B8000FD5B09ECB25022544A8592540259F24925
:103B9000624AD24A424BB24B456182800444832937
:103BA0004400FD1963D409000040E1BF83D7C4007D
:103BB000637BFB008397E40063877701A6855285CA
:103BC000829A3369A90093848406E1BF17C5FE5F1A
:103BD0001305455882801971A6DAAE848395E500F5
:103BE000A2DC86DE328463DC050083D7C40023A018
:103BF000060093F7070885E7930700401DA03008EB
:103C000036C6EF009064B246E34105FE7247BD67D9
:103C1000F98F7977BA9793B717009CC2F1BF9307D2
:103C200000041CC0F6506654D654014509618280D8
:103C300083D7C500011122CC06CE26CA4AC8898B7B
:103C40002E8489CF930774041CC01CC885475CC8A8
:103C5000F2406244D24442490561828074003000DF
:103C6000AA84953FA2452A892685EF00D00901ED57
:103C70008317C40013F7072061FFF19B93E7270028
:103C80002316F400C1B7970700009387A7D89CD4E8
:103C90008357C40008C008C893E707082316F40038
:103CA000A2475CC8B24791CF8315E4002685EF0098
:103CB000905C01C98357C400F19B93E7170023165A
:103CC000F4008357C4003369F9002316240149B76F
:103CD00093870181AA8588436F00F00285E1411135
:103CE0006C00014511CA795581CA834706009CC101
:103CF000034506003335A00041018280014519CA01
:103D0000795589CA834706009CC1034506003335AF
:103D1000A0008280828093F5F50F2A966314C50077
:103D20000145828083470500E38DB7FE0505FDB799
:103D30002A8309CA83830500230073007D160503C7
:103D400085056DFA82802A8311C62300B3007D1693
:103D5000050365FE82805C51411122C44AC006C63B
:103D600026C22A842E8981EF41459D3748D02322DF
:103D700005002324050023200500232605004450C8
:103D8000DC4495C75850931729005847BA97884381
:103D90001DED8544B3942401138654000A0685451D
:103DA0002285492D11CD2322250104C51DA013060E
:103DB000100291452285BD2D5C50C8C4DC47F9F343
:103DC0000145B24022449244024941018280184197
:103DD00098C32328050023260500E5B75C5101118F
:103DE00022CC06CE2A8491EF41452EC6D535B24568
:103DF00048D0232205002324050023200500232684
:103E0000050091C95450DC4113972700DC46BA974E
:103E1000984398C18CC3F2406244056182807971F5
:103E20004ECEAA89416522D426D22E84844906D654
:103E30004AD0D10501487D159C419105050833F70D
:103E4000A7003307C702C183B387C70236979356CB
:103E50000701698FB69793D60701C207BA9723AEB9
:103E6000F5FEE34B98FC8DCE1C4463C4F4024C4039
:103E70004E8536C68505C53510489305C4002A8988
:103E800009060A0631056D35A2854E85813FB24689
:103E90004A84938744008A07A297D4C3850404C840
:103EA0002285B250225492540259F24945618280CF
:103EB0004177698FAA87014519E3C2074145370752
:103EC00000FF7D8F19E32105A207370700F07D8FE2
:103ED00019E311059207370700C07D8F19E3090523
:103EE0008A0763C907001397170005056344070095
:103EF0001305000282801C4113F777000DC393F66F
:103F00001700014799E613F7270011C785831CC1E5
:103F100005473A85828089831CC10947DDBF939696
:103F20000701C182014799E2C183414793F6F70F28
:103F300099E22107A18393F6F70099E21107918393
:103F400093F6370099E20907898393F6170081E613
:103F50008583050799C31CC16DBF1307000255BFB8
:103F6000411122C42E84854506C6F53340C9B240AE
:103F70002244054718C94101828098491C4A797139
:103F800026D206D622D44AD04ECEAE846354F70051
:103F9000B2842E8683A90401032906019C44CC40E7
:103FA0003384290163D38700850532C66D333246D9
:103FB00013084501131324004293C28763ED67027F
:103FC00093854401939829005106131E2900C16668
:103FD000AE98329EFD166364C6036356800071136B
:103FE00083270300F1CB00C9B250225492540259E6
:103FF000F2494561828023A007009107C1B7832F52
:104000000600B3FFDF00638A0F04428FAE82814453
:1040100003A7020083230F00110FB37ED700B38ED6
:10402000FE03B3F7D30093D303019102BE9E9357CF
:104030000701B387F703A69E13D70E01B3FEDE0078
:104040009E97BA9793D40701C207B3E7D701232EEF
:10405000FFFEE3EF12FB23209F0083522600638ABA
:10406000020483270800C28E2E8F814F03270F0082
:1040700083D32E00F58F758F33075702910E110FE2
:104080001E977E97931F0701B3E7FF0023AEFEFE46
:104090008357EFFF83AF0E004183B3875702B3FF0F
:1040A000DF00FE97BA9793DF0701E3611FFD23A0AE
:1040B000FE001106110805B77D1405B7011126CAC7
:1040C0004AC84EC606CE22CC52C4937736002A89FF
:1040D000B284AE8981CFFD1717C7FFFF1307877121
:1040E0008A07BA97904381461D3BAA898984A5C84F
:1040F0008327490291EF4145EFF09FBD2322A9029A
:104100002322050023240500232005002326050083
:10411000032A490203248A0011E8930510274A85DF
:1041200081352324AA002A842320050093F7140054
:1041300091CBCE8522864A8589352A8ACE854A85C5
:104140007139D289858481CC084001E92286A28513
:104150004A85253508C0232005002A84C1BFF240C6
:1041600062444E85D2444249B249224A0561828066
:10417000797126D2AE844ECE83A9040122D4CC41DB
:10418000135456409C44A2994AD056CA06D652CCE3
:10419000AA8A1389190063C42709568532C6EFF02D
:1041A0009FBB3246930745012A8ABE860147910686
:1041B000634A870663530400014494480A04338722
:1041C00087008A06938744017D8ABE9625C213081C
:1041D00000023308C8408145884311079107331511
:1041E000C500C98D232EB7FE83A5C7FFB3D5050132
:1041F000E3E4D7FE0CC399C1138929007D19232854
:104200002A015685A685EFF07FBDB2502254528513
:1042100092540259F249624AD24A45618280850528
:10422000860795BF23AE06FE050751B7910703A683
:10423000C7FF1107232EC7FEE3EAD7FEC1B71C490B
:104240009849998F8DE30A075105D105B306E5001A
:10425000BA95F116F115904298416308E600FD57B2
:104260006363E60085473E858280E364D5FEE5BF53
:10427000011126CAAE844EC6B285AA89268522CCF3
:1042800006CE4AC83284653F05E181454E85EFF090
:104290009FAC85471CC9232A0500F2406244D244E2
:1042A0004249B24905618280054963460500A287FB
:1042B00001492684BE844C404E85EFF0DFA90323DC
:1042C000040183A8040113064401131E230013886C
:1042D00044018A08C16E23262501329EC2989306A6
:1042E0004501014FFD1E1842832F08009106B3754A
:1042F000D701B3F7DF01FA959D8D93DF0F01935737
:104300000701B387F74113D70541BA9713DF074178
:10431000B3F5D501C207CD8F110823AEF6FE110605
:10432000E36318FDC165FD156368C601F1169C4283
:1043300095C72328650095B71C429106110633F7EF
:10434000B7007A9713580741C183C29713DF07411B
:104350006D8FC207D98F23AEF6FEF9B77D13F9B77B
:10436000797122D42E84854526D24AD0B2844ECE8D
:1043700052CC3A8906D6368AEFF0FF9D37071000F7
:104380009307F7FFE58FD18093F4F47FAA89B5E016
:104390003EC62DC4280022C4EFF0FFB5A24621CDB1
:1043A000324793070002898FB317F700D58F335731
:1043B000A70023AAF9003AC6324423AC890033345B
:1043C0008000050423A88900B9C49384D4BCAA94AE
:1043D0009307500323209A003385A7402320A90088
:1043E000B25022544E8592540259F249624A4561B4
:1043F0008280D98F71BF23AAD9007DBF6800EFF0FA
:104400009FAFB24713050502054423AAF90085476B
:1044100023A8F90055BF931724001305E5BCCE97D8
:104420002320AA00884B1604EFF09FA8098C2320B4
:1044300089007DB73386C502011122CC06CEB28534
:1044400032C6D1202A8409C532468145EFF0BF8F9C
:104450002285F240624405618280CDC583A7C5FFF5
:10446000411122C406C626C21384C5FF63D30700C8
:104470003E94AA84A92D97D7FE5F938767819C43BA
:1044800089EF2322040097D7FE5F23A3878022446D
:10449000B24026859244410125AD637EF40014406C
:1044A0003307D4006396E7009843DC43369718C07F
:1044B0005CC0D1BFBA87D84319C3E37DE4FE9443FF
:1044C0003386D700631F86001040B29694C33386AC
:1044D000D700E31EC7FA10435843B29694C3D8C31B
:1044E0007DB76375C400B1479CC055B71040B30693
:1044F000C4006316D70014435843B29614C058C082
:10450000C0C371B78280011126CA93843500F19827
:1045100006CE22CC4AC84EC6A104B14763F7F404C4
:10452000B14463E6B4042A895D2397C7FE5F93878D
:10453000277698433A8431E497C7FE5F938787755F
:104540009C4381EB81454A855D2697C7FE5F23A387
:10455000A774A6854A85612EFD5963193507B147B1
:104560002320F9004A85AD2329A0E3DC04FAB147F2
:104570001CC10145F2406244D2444249B24905613E
:1045800082801C40858F63C00704AD4663F6F60049
:104590001CC03E9404C001A85C406314870217C786
:1045A000FE5F2327F76E4A8525231305B400930782
:1045B000440061993307F54055DF3A94898F1CC058
:1045C00055BF5CC3CDB722874040B5B71304350053
:1045D0007198E30185FCB305A4404A85092EE31BCD
:1045E00035FBB5BF1C46FD171CC663DA0700184E25
:1045F00063C5E700A9476394F5006FE04FAD1C4227
:104600002E851387170018C22380B70082800111FE
:1046100022CC26CA4AC84EC652C406CE2A89AE89C2
:104620003284B304D6007D5A63149400014509A86E
:10463000834504004E864A8575370504E31645FF19
:10464000F2406244D2444249B249224A0561828022
:10465000357122CD26CB4AC94EC706CF52C556C3A7
:104660005AC1DEDEE2DCE6DAAA89AE84328936841B
:1046700009C51C4D99E3EFF0AFBE97C7FFFF9387C5
:104680006703639CF40C83A4490083D7C400A18B07
:10469000FDC79C48EDC793070002A304F1029307EE
:1046A000000302D22305F10222C6930B500297CADF
:1046B000FFFF938AEA14054C294B4A848347040080
:1046C00099C36391770FB30C2441638D0C00E68688
:1046D0004A86A6854E85253FFD576307F51E9256EF
:1046E000E69636D2834704006380071EFD57130900
:1046F000140002C802CE3ECA02CCA309010482D42F
:104700008345090015465685EFF0EFE013041900C4
:10471000C24759E913F7070109C713070002A309A4
:10472000E10413F7870009C71307B002A309E104E6
:10473000834609001307A0026380E608F2474A8413
:10474000814625460347040093051400130707FD1F
:104750006379E60AB5CA3ECE85A897C7FFFF93875F
:1047600067F76395F40083A4890005B797C7FFFF37
:10477000938747F2E39BF4F083A4C90039B7A68579
:104780004E85EFE02FA101D97D55FA406A44DA4405
:104790004A49BA492A4A9A4A0A4BF65B665CD65C91
:1047A0000D618280050419BF330555413315AC00F6
:1047B000C98F3EC82289A9B73247930647001843DC
:1047C00036C6634907023ACE034704009307E00266
:1047D000631FF704034714009307A002631BF7024B
:1047E000B2470904138747009C433AC663C10702D6
:1047F0003ECA35A83307E04093E727003ACE3EC8CB
:10480000E1B7B387670385462E84BA9725BFFD5766
:10481000C5B7050402CA81468147254603470400FF
:1048200093051400130707FD6378E606F1F283454C
:1048300004000D4617C5FFFF130505FDEFF0AFCDD2
:1048400011CD97C7FFFF938727FC1D8D93070004A9
:10485000B397A700424505045D8D2AC8834504002F
:10486000194617C5FFFF130565FA13091400230441
:10487000B102EFF04FCA2DC197D7FFFF9387E769C9
:1048800095E74247B2471377071009CF91073EC615
:104890009257D2973ED215B5B387670385462E84CB
:1048A000BA97ADBF9D07E19BA107D5B778009706E2
:1048B0000000938606D626860C084E85EFD0AFE51D
:1048C000FD572A8AE316F5FC83D7C40093F7070443
:1048D000E39C07EA125555BD7800970600009386C1
:1048E00046D326860C084E85EFD07FC0D1BF41113C
:1048F00022C42A842E8523A6019006C6EF70505745
:10490000FD576317F5009387C1909C4391C31CC06A
:10491000B240224441018280411122C42E848395F9
:10492000E50006C67D22634905007C48AA977CC83D
:10493000B2402244410182808357C4007D777D17B5
:10494000F98F2316F400EDB783D7C500011122CCEF
:1049500026CA4AC84EC606CE93F70710AA842E84EC
:104960003289B68991C78395E500894601460D2AAB
:104970008357C4007D777D17F98F2316F4008315C4
:10498000E4006244F240CE864A86B2494249268516
:10499000D2440561B9A8411122C42E848395E50053
:1049A00006C6FD28FD570357C400631BF500FD77BD
:1049B000FD17F98F2316F400B24022444101828092
:1049C0008567D98F2316F40068C8FDB78395E50085
:1049D00081A891CD9307F00F63F7C7009307A00854
:1049E0001CC17D5582802380C5000545828001451C
:1049F0008280411122C42A842E85B285368623A660
:104A0000019006C6EF70704DFD576317F500938750
:104A1000C1909C4391C31CC0B2402244410182809A
:104A2000411122C42A842E8523A6019006C6EF7068
:104A30007038FD576317F5009387C1909C4391C36D
:104A40001CC0B240224441018280411122C42A8408
:104A50002E85B28523A6019006C6EF70D037FD578C
:104A60006317F5009387C1909C4391C31CC0B2406B
:104A7000224441018280411122C42A842E8523A62A
:104A8000019006C6EF709037FD576317F5009387C6
:104A9000C1909C4391C31CC0B2402244410182801A
:104AA000411122C42A842E85B285368623A6019020
:104AB00006C6EF70B036FD576317F5009387C190B7
:104AC0009C4391C31CC0B240224441018280828039
:104AD0008280411122C42A842E85B285368623A67F
:104AE000019006C6EF703036FD576317F5009387C7
:104AF000C1909C4391C31CC0B240224441018280BA
:104B0000AE87328836872A836396062097C8FFFFD0
:104B1000938888EF63FEC50A41676374E60A13074A
:104B2000F00F3337C7000E07B356E600B69883C6BA
:104B30000800369793060002998E99CAB397D7005A
:104B40003357E5003318D600B365F7003313D500AB
:104B50001355080133F7A502131608014182935635
:104B60000301B3D5A5024207D98EB307B6022E873B
:104B700063FCF600C2961387F5FF63E7060163F551
:104B8000F6001387E5FFC2969D8EB3F7A602420397
:104B900013530301B3D6A602C20733E36700B3057C
:104BA000D6023685637BB30042931385F6FF6366B6
:104BB00003016374B3001385E6FF4207498F814503
:104BC0004DA8B70600014147E360D6F66147A9BF8B
:104BD00001E6854633D8C602C166637ED8089306CF
:104BE000F00F63F306012147B356E800B69883C679
:104BF0000800BA9613070002158F49E7B3870741EB
:104C00008545135608019318080193D80801935657
:104C1000030133F7C702B3D7C7024207D98E3385E2
:104C2000F8023E8763FCA600C2961387F7FF63E78E
:104C3000060163F5A6001387E7FFC296898EB3F7D6
:104C4000C602420313530301B3D6C602C20733E3BD
:104C50006700B388D8023685637B130142931385BE
:104C6000F6FF63660301637413011385E6FF4207D1
:104C7000498F3A858280B70600014147E366D8F63E
:104C800061479DB73318E800B3D5D7003313E5006B
:104C9000B356D50013550801B397E70033F7A502C3
:104CA000B3E8F60093170801C18313D60801B3D502
:104CB000A5024207518FB386B7022E86637CD700C8
:104CC00042971386F5FF636707016375D700138664
:104CD000E5FF4297B306D74033F7A602C20893D840
:104CE0000801B3D6A6024207B385D702B3671701FE
:104CF000368763FCB700C2971387F6FF63E70701A7
:104D000063F5B7001387E6FFC2978D8F93150601F1
:104D1000D98DC5BD63E2D514416763FEE602130871
:104D2000F00F3337D8000E0733D8E60097C5FFFFE2
:104D3000938585CDC29503C80500930500023A9876
:104D4000B385054185E10547E3E5F6F23335C50056
:104D50001347150039BFB70500014147E3E6B6FC2C
:104D60006147D9B733570601B396B600D98E93DEA3
:104D7000060133D70701B378D703B397B700335889
:104D800005013363F80093970601C18313580301AB
:104D90003316B6003357D703C20833E80801338F00
:104DA000E7023A8E637CE8013698130EF7FF6367DB
:104DB000D8006375E801130EE7FF36983308E84121
:104DC000B378D8033358D803C208B38E07039317B8
:104DD0000301C183B3E7F800428763FCD701B697AC
:104DE0001307F8FF63E7D70063F5D7011307E8FF60
:104DF000B697420EB387D741C16E3367EE00138872
:104E0000FEFF33730701935807013378060141828F
:104E1000330E03033388080393560E013303C30292
:104E200042939A96B388C80263F30601F69813D6A4
:104E30000601B29863E01703E39317D9C167FD1722
:104E4000FD8EC206337EFE003315B500F296814515
:104E5000E371D5E27D17A5B38145014719BD370838
:104E600010007D18B378B8008E089357D501011152
:104E700013D745013378D800B3E7170193D846011B
:104E80000E0826CA4AC89374F77F93F8F87F135721
:104E9000D60106CE22CC4EC613D9F501FD8233676A
:104EA00007010E050E06338814416316D92263519B
:104EB000000F63980802B366C70063870656930520
:104EC000F8FF89E92A963335A600BA97AA97328562
:104ED0008544B1A89306F07F631DD8009304F07F4A
:104EE00079AA9306F07F638CD418B7068000558F9B
:104EF000C2859306800363C9B608FD4663C0B60643
:104F0000130800023308B840B3160701B358B600BF
:104F100033160601B3E616013336C000558E3357FB
:104F2000B7002A963E97B337A600BA9732851397F3
:104F300087006356071485041307F07F6385E448F0
:104F4000B70680FFFD16FD8E9355150005899397D2
:104F5000F6014D8D5D8D93D7160015A2938605FE43
:104F600093080002B356D70001486388150113085F
:104F70000004B305B8403318B7003366C8003336B1
:104F8000C000558E014771BF598E3336C000DDBF5A
:104F9000630B080AB38598408DE4B3E6A700638BE2
:104FA00006409386F5FF99E63295BA973336C500E9
:104FB000B29739BF1308F07F639D0501BA87328528
:104FC00031BF9306F07FE38BD8FEB7068000D58F04
:104FD000AE869305800363C4D506FD4563CBD50239
:104FE000130800023308D8403353D500B3950701A6
:104FF00033150501B3E565003335A0004D8DB3D6FB
:10500000D7003295B387E6003336C500B297C68421
:1050100039BF938506FE13030002B3D5B7000148DC
:105020006388660013080004B306D8403398D7009D
:105030003365A8003335A0004D8D8146D9B75D8D0D
:105040003335A000DDBF9386140093F5E67FBDE104
:10505000B3E6A700A9E463830636B366C70085C23A
:105060002A96BA973335A600AA97139787003285F8
:1050700063570700370780FF7D17F98F8544137743
:105080007500630407341377F5009146630FD73238
:105090009306450033B5A600AA9736853DA699DE4E
:1050A000598EE30D06E20149B7074000014593041C
:1050B000F07F21AE9305F07F6385B6302A963E9748
:1050C000B337A6003E971315F7010582518D93570C
:1050D0001700B6846DB76356000D63910808B36678
:1050E000C700638306349305F8FF91E93306C54092
:1050F0003335C500998F898F32858544B1A09306D9
:10510000F07FE30DD8DC9306800363C8B608FD4644
:1051100063CFB604130800023308B840B316070182
:10512000B358B60033160601B3E616013336C00095
:10513000558E3357B7003306C5403387E740B33742
:10514000C500B307F740328513978700E35907F28C
:10515000370480007D147D8CAA8975A29306F07FA8
:10516000E38FD4F0B7068000558FC28569BF938660
:1051700005FE93080002B356D70001486388150165
:1051800013080004B305B8403318B7003366C800ED
:105190003336C000558E014779BF598E3336C00073
:1051A000DDBF6304080C3388984095E8B3E5A70099
:1051B000638E05269305F8FF91E93305A640B307F2
:1051C000F7403336A600918F368905BF1303F07F71
:1051D000631F6800BA8732859304F07F7DA0930532
:1051E000F07FE389B8FEB7058000CD8FC285130834
:1051F00080036348B8067D48634EB802130300027B
:105200003303B340335EB500339867003315650050
:105210003368C8013335A0003365A800B3D5B700A3
:105220003305A640B307B7403336A600918FC68436
:10523000368919BF138805FE130E000233D8070103
:1052400001436388C50113030004B305B3403393DE
:10525000B7003365A3003335A0003365A80081454E
:10526000C1B75D8D3335A000DDBF9385140093F584
:10527000E57FB5E533E8A700B365C700B1E463187F
:1052800008006389051ABA8732853689CDBBE38861
:1052900005DE3308C540B385E740B3380501B38563
:1052A000154113948500635A04003305A640B307E3
:1052B000F7403336A600918FC9BF3365B800630F3E
:1052C0000516AE87428565BB63180800638A05161C
:1052D000BA873285368919B1E38205C0E9B3B309CB
:1052E000C540B33535013384E7400D8C93158400F8
:1052F00063D70506B309A640B307F7403336360136
:105300003384C740368935C02285EF10D049130752
:1053100085FFFD4763C1E70693070002998F3314A9
:10532000E400B3D7F9005D8C3395E900634E97062E
:10533000058F93071700FD4663C5F60413070002A7
:105340001D8F3356F500B316E4003315E500D18EFA
:105350003335A000558DB357F40081440DB333E5C8
:10536000890055F181478144C1A84E85EF10B043B3
:105370001305050269BF130485FD339489000145B7
:1053800075B70517130600023357E400814663879B
:10539000C700930600049D8EB316D400558D333597
:1053A000A000598D814755BFB70780FFFD17998C25
:1053B000E18FF1B1BA873285AE84D1B1BA87328537
:1053C0007DB99304F07F8147014513978700635BA4
:1053D000070085041307F07F6389E406370780FF21
:1053E0007D17F98F1397D7010D81598D1307F07F22
:1053F0008D836399E4005D8D814709C5B707080077
:105400000145014913F7F47FB2075207F2406244A5
:10541000B1839315F901D98F33E7B700D2444249DC
:10542000B249BA8505618280C28491B9BA87328552
:10543000C284A1BD81470145014941BF8147EDBFFC
:1054400001450149B70740009DB18147014559BF5A
:10545000797113D8450126D24ECE52CC5AC85EC6B9
:105460009394C50006D622D44AD056CA1378F87F42
:105470002A8BB28B368AB18093D9F5016304080870
:105480009307F07F630AF80C935AD5018E04B3E4B6
:105490009A00B70A8000B3EA5401131435001309C7
:1054A00018C0014B13554A019314CA001378F57FB5
:1054B000B180135AFA016304080C9307F07F630963
:1054C000F8101395340093D7DB015D8DB70480008D
:1054D000C98C139F3B00130518C0814713172B007D
:1054E0005D8F7D17B94633C649013308A94063E390
:1054F000E61097B6FFFF938626420A0736971843B1
:1055000036970287B3EAA40063820A069DC82685FF
:10551000EF107029930755FF71476349F702F54A69
:10552000130485FFB38AFA40B3948400B35A5B0135
:10553000B3EA9A0033148B001308D0C03309A84093
:105540008DB7EF10502613050502E9B7930485FDCA
:10555000B31A9B000144CDB7B3EAA400638C0A00E0
:105560002A84A68A1309F07F0D4B2DBF01440149FF
:10557000054B0DBF01441309F07F094B25B733EFED
:10558000740163000F068DC82685EF10D0219307A4
:1055900055FF71476348F7027547130F85FF1D8F4D
:1055A000B394E40133D7EB00D98C339FEB0113069E
:1055B000D0C03305A64015B75E85EF10D01E130589
:1055C0000502F1B7930485FDB3949B00014FC5B765
:1055D00033EF7401630B0F005E8F1305F07F8D476F
:1055E000F5BD814401458547D5BD81441305F07F54
:1055F0008947EDB563E6540163939A2A6361E42B0E
:105600009396FA01135714009317F40193DA1A00D2
:1056100033E4E6001395840093548F01458D135EA7
:105620000501B3D8CA03131305011353030113571C
:10563000040193158F00B3F4CA03C68FB306130396
:10564000939A040133675701637CD7002A97938F9D
:10565000F8FF6367A7006375D700938FE8FF2A9769
:10566000158FB35EC703420441803377C703F686C4
:10567000B308D3034207418F637C17012A979386AF
:10568000FEFF6367A700637517019386EEFF2A97F5
:10569000C20FB3EFDF00C166330417419388F6FFF2
:1056A00013DF0F0133F71F0193DE0501B3F8150176
:1056B000B3031703B3041F033387EE02B302DF0300
:1056C000330F970013D703017A9763739700B6924D
:1056D000135F0701169FC162FD12B3765700C20621
:1056E000B3F353009E966367E401FE84631EE403F4
:1056F00063FCD702AE9733B7B7002A973A949384E6
:10570000FFFF636685006311850263EFB700636680
:10571000E401631B8F0063F9D700AE9733B7B7007E
:105720002A979384EFFF3A94B386D7403304E44139
:10573000B3B7D7001D8C7D5F6305850E335FC4034F
:1057400013D706013374C403B307E3034204598C2F
:105750007A87637CF4002A941307FFFF6367A40031
:105760006375F4001307EFFF2A941D8C335FC403A5
:10577000C206C1823374C403FA873303E3034204CD
:10578000558C637C64002A949307FFFF6367A40031
:10579000637564009307EFFF2A9442075D8F9317A8
:1057A0000701C1833304644013530701338E170389
:1057B000B308130333836E02B38EFE0293570E01B8
:1057C000C69EF69763F41701C166369393D8070116
:1057D0009A9841637D13B3F66700C206337E6E006C
:1057E000F29663661401631E14193A8F9DCA2A94B7
:1057F000130FF7FF6361A4026366140163121419A7
:1058000063FDD50093971500B3B5B7002E95130F20
:10581000E7FF2A94BE85631414016384B600136FF6
:105820001F001307F83F6357E00A93777F0081CF8B
:105830009377FF0091466388D70093064F0033BFEC
:10584000E601FA94368F9397740063D80700B70780
:1058500000FFFD17FD8C130708409307E07F63C826
:10586000E710135F3F009397D401B3E7E70113D527
:10587000340032051377F77F5207B250225431813A
:10588000598D7E063367C50092540259F249624A27
:10589000D24A424BB24B3E85BA85456182807D1823
:1058A00081478DBB4E86D684228FDA870947638075
:1058B000E70C0D476386E70A0547E394E7F60145E1
:1058C000814785A85286DDB7B7040800014F01461D
:1058D0008D47E9BF0545198D93078003E3C1A7FEF6
:1058E000FD4763CAA7041308E841B397040133577F
:1058F000AF0033180F01D98F33380001B3E7070128
:1059000033D5A40013F7770001CF13F7F7009146C2
:105910006308D70013874700B337F7003E95BA876F
:1059200013178500634A07041317D5018D83D98F98
:105930000D8101473DBF8557998F93060002B3D76C
:10594000F40001476306D5001308E84333970401C8
:10595000336FE701333FE001B3E7E70101455DB78E
:105960003705080081471307F07F014619B7014545
:1059700081471307F07FF5BD014581470547D5BD38
:105980007A873A8F69BD13D74501B7071000FD1715
:1059900013D846012A83AA8E1377F77F1305F07F69
:1059A000B3F8B700328FF58FFD811378F87FFD8251
:1059B000631AA70033EE6800054563140E00630503
:1059C000E80082806315A8005D8E05457DFA0545D7
:1059D000E31907FFE397F8FEE395EEFF6388D50030
:1059E0006DF333E568003335A00082800145828085
:1059F00013D84501B7071000FD1713D746011378D8
:105A0000F87F930EF07FB3F8B7002A83F58FFD81FE
:105A1000328E1377F77FFD826318D801B3EEA800AA
:105A200063850E06F9550DA86316D701B3EEC700BE
:105A3000E39A0EFE631D080433E5A8001335150034
:105A400019E35D8E15CE11E5638AD50085C9FD5534
:105A500021A0FD5591C2B6852E858280E34807FFBF
:105A60006354E800F5F9E5B7E3E217FF639CF8003B
:105A7000E36E6EFCE368C3FF8145F9BF8545E9BF6E
:105A800065FDE9B7E3E0F8FEC5BFE30107FB4DFFA5
:105A9000014545BF13D84501B7071000FD1713D7BF
:105AA00046011378F87F930EF07FB3F8B7002A838E
:105AB000F58FFD81328E1377F77FFD826318D80151
:105AC000B3EEA80063850E0689450DA86316D701BD
:105AD000B3EEC700E39A0EFE631D080433E5A80089
